:030000000209C32F
:0C09C300787FE4F6D8FD758122020A0A54
:100A4F0069742062726F6B6500446F6F72204C6F18
:100A5F00636B656400456E74657220746865005041
:100A6F00617373776F72643A2000456E74657220FC
:100A7F007468652050617373776F7264002A004445
:100A8F006F6F7220556E6C6F636B656400456E748B
:100A9F006572204E65770050617373776F726400D3
:100AAF00456E746572204E65772050617373776F52
:100ABF0072640050617373776F7264204368616E64
:040ACF0067656400F3
:060F0B00041B37333337ED
:0C0EDD00EF4E6007EF1F70F81E80F5223A
:090E64007F30120ECB7F0A7E00E4
:100E6D00AD07AC06ED4C600E7F707E00120EDDED11
:070E7D001D70F11C80EE2244
:100ECB008F90C284C283D2857F147E00120E6DC2B6
:020EDB0085226E
:0A0F01007F01120ECB7F80020ECBA1
:100D7F00C283C284C285120E64120E64120E647F87
:100D8F0038120E667F38120E667F38120ECB7F0C2C
:0D0D9F00120ECB7F01120ECB7F0C020ECB8B
:0D0E22007C00AF03AE02120B7EEF2430FF08
:100E2F008F90D283C284D285120E69C2857F0A7ECB
:040E3F0000020E6D32
:0D0D4D0074172511F8A6077BFF7A0A798C30
:100D5A008B128A138914AB12AA13A914120B5360AB
:100D6A00130514E5147002051314F9120B53FF123C
:050D7A000E2F80E222B3
:100BD300AB07AA067C277D10120E287C277D10AF59
:100BE30003AE02120B7EAA04AB057C037DE8120E52
:100BF300247C037DE8AF03AE02120B7EAA04AB058F
:100C03007D64120E227C007D64AF03AE02120B7E64
:100C1300AA04AB057D0A120E22AE02AF037C007D4F
:0B0C23000A120B7EED2430FF020E2FA2
:050F12007F80020ECB00
:050F17007FC0020ECBBB
:040F1C0075A0F022AA
:040DFE007FE87E0309
:100E0200E4FDFCC3ED9FEC9E50070DBD00010C807C
:0F0E1200F2E4FFFE0FBF00010EBE04F8BFFCF5B7
:010E210022AE
:10080000C2A0D2A1D2A2D2A320A409120DFE30A46C
:10081000FD7F372220A509120DFE30A5FD7F38226D
:1008200020A609120DFE30A6FD7F392220A709124D
:100830000DFE30A7FD7F2F22D2A0C2A1D2A2D2A34B
:1008400020A409120DFE30A4FD7F342220A5091238
:100850000DFE30A5FD7F352220A609120DFE30A623
:10086000FD7F362220A709120DFE30A7FD7F7822DA
:10087000D2A0D2A1C2A2D2A320A409120DFE30A4FC
:10088000FD7F312220A509120DFE30A5FD7F322209
:1008900020A609120DFE30A6FD7F332220A70912E3
:1008A0000DFE30A7FD7F2D22D2A0D2A1D2A2C2A3DD
:1008B00020A409120DFE30A4FD7F432220A50912B9
:1008C0000DFE30A5FD7F302220A609120DFE30A6B8
:1008D000FD7F3D2220A709120DFE30A7FD7F2B22B0
:0308E0007F6E2206
:0B0EE9007F6EBF6E061208003098F705
:010EF40022DB
:0C0EF500438920758DFD759850D28E2227
:100E9F0020980F120EE9BF2B097BFF7A0A794F12A8
:070EAF000D5AC298AF992211
:0D0EB6007C00AF03AE02120B7EEF2430FF74
:080EC3008F993099FDC29922BC
:060DAC007BFF7A0A795872
:100DB2008B128A138914AB12AA13A914120B536053
:100DC200130514E5147002051314F9120B53FF12E4
:050DD2000EC380E222C7
:060D16008B208A218922D6
:100D1C00120E9FAE07120EC3EE640D6003BE0A0ADC
:100D2C00AB20AA21A922E4020B6CAB20AA21A92298
:100D3C00EE120B6C74012522F522E43521F521808D
:010D4C00CFD7
:100C2E00AB07AA067C277D10120EBC7C277D10AF69
:100C3E0003AE02120B7EAA04AB057C037DE8120EF6
:100C4E00B87C037DE8AF03AE02120B7EAA04AB059F
:100C5E007D64120EB67C007D64AF03AE02120B7E75
:100C6E00AA04AB057D0A120EB6AE02AF037C007D60
:0B0C7E000A120B7EED2430FF020EC3B3
:100CD200120F1C120D7F120EF57F327E00120DD7FD
:100CE200D2827BFF7A0A7958120D5A120DAC120E7B
:100CF200E9BF2B0D751500751601AF16AE15120A58
:100D0200D3120E9FBF2B0CE4F515F516AF16AE15D8
:040D1200120AD322CC
:100E4300120F017BFF7A0A7964120D5A120F177B76
:100E5300FF7A0A796E120D5A7BFF7A0A7979020DAD
:010E6300B2DC
:040AD3008E088F09F1
:100AD700E4F50AF50B120E43C3E50B9404E50A642B
:100AE7008094805048E50964014508701A74E964E8
:100AF7006E440E6012120EE97417250B120D510584
:100B07000BE50B7002050AE509450870CB120E9F2D
:100B17007417250BF8A6077BFF7A0A798C120DB29A
:100B2700120D54050BE50B70AF050A80ABE51BB53D
:100B37001716E51CB51811E51DB5190CE51EB51AF4
:0B0B470007AF09AE08020C89120E84F3
:010B52002280
:100C89008E0C8F0D7F347E00120DD7C282120F0198
:100C99007BFF7A0A798E120D5A7BFF7A0A798E12B6
:100CA9000DB2120EE9EF642D6006120E9FBF2D03DF
:100CB900120E84120EE9EF64786006120E9FBF7857
:090CC90007AF0DAE0C1208E32286
:100E84007F6E7E00120DD7D282120F017BFF7A0A89
:0B0E94007958120D5A120DAC020CD25E
:0408E3008E0E8F0FD7
:1008E700E4F510F511120F01120F127BFF7A0A7946
:1008F7009C120D5A120F177BFF7A0A79A6120D5A0E
:100907007BFF7A0A79AF120DB27FD07E07120E6D88
:10091700120F01C3E5119404E51064809480503DE3
:10092700E50F6401450E701674E9646E440E600E9F
:10093700120EE9120D4D0511E51170020510E50FB4
:10094700450E70CF120E9F120D4D7BFF7A0A798CE0
:10095700120DB20511E51170BA051080B6120F011C
:10096700E4F510F51174172511F8E6FF120E2F059F
:1009770011E51170020510C39404E510648094809A
:1009870040E37FD07E07120E6D85171B85181C85E7
:10099700191D851A1E120F017BFF7A0A79C2120DE3
:1009A7005A7BFF7A0A79C2120DB2120EE9EF642D53
:0B09B7006006120E9FBF2D03120E847D
:0109C2002212
:040DD700AB07AA06B6
:100DDB00C280900000D280AF03AE02120E6DC280B3
:100DEB007F647E00120E6DA3E582B4F4E8E583B454
:020DFB0001E312
:010DFD0022D3
:1009CF00020CD2E493A3F8E493A34003F68001F260
:1009DF0008DFF48029E493A3F85407240CC8C33329
:1009EF00C4540F4420C8834004F456800146F6DFF8
:1009FF00E4800B0102040810204080900F0BE47E6E
:100A0F00019360BCA3FF543F30E509541FFEE493EC
:100A1F00A360010ECF54C025E060A840B8E493A3B3
:100A2F00FAE493A3F8E493A3C8C582C8CAC583CADE
:100A3F00F0A3C8C582C8CAC583CADFE9DEE780BE96
:010F110000DF
:100B5300BB010689828A83E0225002E722BBFE02A0
:090B6300E32289828A83E49322D3
:100B6C00BB010689828A83F0225002F722BBFE0168
:020B7C00F32262
:100B7E00BC000BBE0029EF8DF084FFADF022E4CC5B
:100B8E00F875F008EF2FFFEE33FEEC33FCEE9DEC24
:100B9E00984005FCEE9DFE0FD5F0E9E4CEFD22ED6A
:100BAE00F8F5F0EE8420D21CFEADF075F008EF2FB4
:100BBE00FFED33FD4007985006D5F0F222C398FDA5
:050BCE000FD5F0EA2242
:00000001FF
